{
  "contractName": "HospitalRecord",
  "abi": [
    {
      "inputs": [],
      "payable": true,
      "stateMutability": "payable",
      "type": "constructor"
    },
    {
      "anonymous": false,
      "inputs": [],
      "name": "PayAmount",
      "type": "event"
    },
    {
      "anonymous": false,
      "inputs": [],
      "name": "RegistrationStarted",
      "type": "event"
    },
    {
      "anonymous": false,
      "inputs": [],
      "name": "UpdatingAge",
      "type": "event"
    },
    {
      "anonymous": false,
      "inputs": [],
      "name": "ViewDetails",
      "type": "event"
    },
    {
      "constant": true,
      "inputs": [],
      "name": "currentPhase",
      "outputs": [
        {
          "internalType": "enum HospitalRecord.Phase",
          "name": "",
          "type": "uint8"
        }
      ],
      "payable": false,
      "stateMutability": "view",
      "type": "function"
    },
    {
      "constant": true,
      "inputs": [],
      "name": "hospital",
      "outputs": [
        {
          "internalType": "address",
          "name": "",
          "type": "address"
        }
      ],
      "payable": false,
      "stateMutability": "view",
      "type": "function"
    },
    {
      "constant": false,
      "inputs": [],
      "name": "advancePhase",
      "outputs": [],
      "payable": false,
      "stateMutability": "nonpayable",
      "type": "function"
    },
    {
      "constant": false,
      "inputs": [
        {
          "internalType": "string",
          "name": "name",
          "type": "string"
        },
        {
          "internalType": "uint256",
          "name": "age",
          "type": "uint256"
        },
        {
          "internalType": "string",
          "name": "problem",
          "type": "string"
        },
        {
          "internalType": "address",
          "name": "P",
          "type": "address"
        },
        {
          "internalType": "address",
          "name": "D",
          "type": "address"
        }
      ],
      "name": "patientRegister",
      "outputs": [],
      "payable": false,
      "stateMutability": "nonpayable",
      "type": "function"
    },
    {
      "constant": false,
      "inputs": [
        {
          "internalType": "string",
          "name": "name",
          "type": "string"
        },
        {
          "internalType": "uint256",
          "name": "age",
          "type": "uint256"
        },
        {
          "internalType": "address",
          "name": "D",
          "type": "address"
        }
      ],
      "name": "DoctorRegister",
      "outputs": [],
      "payable": false,
      "stateMutability": "nonpayable",
      "type": "function"
    },
    {
      "constant": false,
      "inputs": [
        {
          "internalType": "address payable",
          "name": "P1",
          "type": "address"
        }
      ],
      "name": "unregisterPatient",
      "outputs": [],
      "payable": false,
      "stateMutability": "nonpayable",
      "type": "function"
    },
    {
      "constant": false,
      "inputs": [
        {
          "internalType": "address",
          "name": "A",
          "type": "address"
        },
        {
          "internalType": "uint256",
          "name": "age",
          "type": "uint256"
        }
      ],
      "name": "updateAge",
      "outputs": [],
      "payable": false,
      "stateMutability": "nonpayable",
      "type": "function"
    },
    {
      "constant": true,
      "inputs": [],
      "name": "viewRecord",
      "outputs": [
        {
          "internalType": "bytes32",
          "name": "Id",
          "type": "bytes32"
        },
        {
          "internalType": "bytes32",
          "name": "Age",
          "type": "bytes32"
        },
        {
          "internalType": "bytes32",
          "name": "Name",
          "type": "bytes32"
        },
        {
          "internalType": "bytes32",
          "name": "problem",
          "type": "bytes32"
        }
      ],
      "payable": false,
      "stateMutability": "view",
      "type": "function"
    },
    {
      "constant": false,
      "inputs": [
        {
          "internalType": "address payable",
          "name": "toHospital",
          "type": "address"
        },
        {
          "internalType": "address payable",
          "name": "toDoctor",
          "type": "address"
        }
      ],
      "name": "payBill",
      "outputs": [],
      "payable": true,
      "stateMutability": "payable",
      "type": "function"
    }
  ],
  "bytecode": "0x60806040526000600660006101000a81548160ff0219169083600381111561002357fe5b0217905550336000806101000a81548173ffffffffffffffffffffffffffffffffffffffff021916908373ffffffffffffffffffffffffffffffffffffffff160217905550611596806100776000396000f3fe6080604052600436106100865760003560e01c8063a3ed510611610059578063a3ed51061461026b578063aa2fedde146102c6578063be25a7181461031d578063e8bdc93a14610334578063f01319ed146104dd57610086565b8063055ad42e1461008b5780631def195b146100c45780632f46887a14610115578063719780eb14610179575b600080fd5b34801561009757600080fd5b506100a061051d565b604051808260038111156100b057fe5b60ff16815260200191505060405180910390f35b3480156100d057600080fd5b50610113600480360360208110156100e757600080fd5b81019080803573ffffffffffffffffffffffffffffffffffffffff169060200190929190505050610530565b005b6101776004803603604081101561012b57600080fd5b81019080803573ffffffffffffffffffffffffffffffffffffffff169060200190929190803573ffffffffffffffffffffffffffffffffffffffff169060200190929190505050610640565b005b34801561018557600080fd5b506102696004803603606081101561019c57600080fd5b81019080803590602001906401000000008111156101b957600080fd5b8201836020820111156101cb57600080fd5b803590602001918460018302840111640100000000831117156101ed57600080fd5b91908080601f016020809104026020016040519081016040528093929190818152602001838380828437600081840152601f19601f82011690508083019250505050505050919291929080359060200190929190803573ffffffffffffffffffffffffffffffffffffffff1690602001909291905050506107e2565b005b34801561027757600080fd5b506102c46004803603604081101561028e57600080fd5b81019080803573ffffffffffffffffffffffffffffffffffffffff1690602001909291908035906020019092919050505061096d565b005b3480156102d257600080fd5b506102db610aac565b604051808273ffffffffffffffffffffffffffffffffffffffff1673ffffffffffffffffffffffffffffffffffffffff16815260200191505060405180910390f35b34801561032957600080fd5b50610332610ad1565b005b34801561034057600080fd5b506104db600480360360a081101561035757600080fd5b810190808035906020019064010000000081111561037457600080fd5b82018360208201111561038657600080fd5b803590602001918460018302840111640100000000831117156103a857600080fd5b91908080601f016020809104026020016040519081016040528093929190818152602001838380828437600081840152601f19601f820116905080830192505050505050509192919290803590602001909291908035906020019064010000000081111561041557600080fd5b82018360208201111561042757600080fd5b8035906020019184600183028401116401000000008311171561044957600080fd5b91908080601f016020809104026020016040519081016040528093929190818152602001838380828437600081840152601f19601f820116905080830192505050505050509192919290803573ffffffffffffffffffffffffffffffffffffffff169060200190929190803573ffffffffffffffffffffffffffffffffffffffff169060200190929190505050610d3f565b005b3480156104e957600080fd5b506104f26111a5565b6040518085815260200184815260200183815260200182815260200194505050505060405180910390f35b600660009054906101000a900460ff1681565b6000809054906101000a900473ffffffffffffffffffffffffffffffffffffffff1673ffffffffffffffffffffffffffffffffffffffff163373ffffffffffffffffffffffffffffffffffffffff161461058957600080fd5b3373ffffffffffffffffffffffffffffffffffffffff166000809054906101000a900473ffffffffffffffffffffffffffffffffffffffff1673ffffffffffffffffffffffffffffffffffffffff16146105e257600080fd5b6000600160008373ffffffffffffffffffffffffffffffffffffffff1673ffffffffffffffffffffffffffffffffffffffff16815260200190815260200160002060040160006101000a81548160ff02191690831515021790555050565b600380600381111561064e57fe5b600660009054906101000a900460ff16600381111561066957fe5b1461067357600080fd5b600160003373ffffffffffffffffffffffffffffffffffffffff1673ffffffffffffffffffffffffffffffffffffffff16815260200190815260200160002060040160009054906101000a900460ff16610735576040517f08c379a000000000000000000000000000000000000000000000000000000000815260040180806020018281038252601a8152602001807f596f75206172656e27742052656769737465726564207965742100000000000081525060200191505060405180910390fd5b60003490508373ffffffffffffffffffffffffffffffffffffffff166108fc6002838161075e57fe5b049081150290604051600060405180830381858888f1935050505015801561078a573d6000803e3d6000fd5b508273ffffffffffffffffffffffffffffffffffffffff166108fc600283816107af57fe5b049081150290604051600060405180830381858888f193505050501580156107db573d6000803e3d6000fd5b5050505050565b60008060038111156107f057fe5b600660009054906101000a900460ff16600381111561080b57fe5b1461081557600080fd5b6000809054906101000a900473ffffffffffffffffffffffffffffffffffffffff1673ffffffffffffffffffffffffffffffffffffffff163373ffffffffffffffffffffffffffffffffffffffff161461086e57600080fd5b600560008154809291906001019190505550600554600260008473ffffffffffffffffffffffffffffffffffffffff1673ffffffffffffffffffffffffffffffffffffffff1681526020019081526020016000206000018190555083600260008473ffffffffffffffffffffffffffffffffffffffff1673ffffffffffffffffffffffffffffffffffffffff168152602001908152602001600020600101908051906020019061091f929190611435565b5082600260008473ffffffffffffffffffffffffffffffffffffffff1673ffffffffffffffffffffffffffffffffffffffff1681526020019081526020016000206002018190555050505050565b600280600381111561097b57fe5b600660009054906101000a900460ff16600381111561099657fe5b146109a057600080fd5b6000809054906101000a900473ffffffffffffffffffffffffffffffffffffffff1673ffffffffffffffffffffffffffffffffffffffff163373ffffffffffffffffffffffffffffffffffffffff16146109f957600080fd5b81600160008573ffffffffffffffffffffffffffffffffffffffff1673ffffffffffffffffffffffffffffffffffffffff1681526020019081526020016000206002018190555081600360018060008773ffffffffffffffffffffffffffffffffffffffff1673ffffffffffffffffffffffffffffffffffffffff168152602001908152602001600020600001540381548110610a9257fe5b906000526020600020906005020160020181905550505050565b6000809054906101000a900473ffffffffffffffffffffffffffffffffffffffff1681565b6000809054906101000a900473ffffffffffffffffffffffffffffffffffffffff1673ffffffffffffffffffffffffffffffffffffffff163373ffffffffffffffffffffffffffffffffffffffff1614610b2a57600080fd5b600380811115610b3657fe5b600660009054906101000a900460ff166003811115610b5157fe5b1415610b80576000600660006101000a81548160ff02191690836003811115610b7657fe5b0217905550610bd2565b60006001600660009054906101000a900460ff166003811115610b9f57fe5b019050806003811115610bae57fe5b600660006101000a81548160ff02191690836003811115610bcb57fe5b0217905550505b60006003811115610bdf57fe5b600660009054906101000a900460ff166003811115610bfa57fe5b1415610c2d577f82e6c84abd647d1b4fae9bee1859f2642e5443af0ff900d4af83a93c2bf4151260405160405180910390a15b60016003811115610c3a57fe5b600660009054906101000a900460ff166003811115610c5557fe5b1415610c88577f37337cfef19cdaee29ea045ccb97cda43a9b133da88c604dece06e79374563fa60405160405180910390a15b60026003811115610c9557fe5b600660009054906101000a900460ff166003811115610cb057fe5b1415610ce3577f6d7f00ee2ee689162e1fb2c73942e78b5a7d7139eef33caecec508534c313a0a60405160405180910390a15b600380811115610cef57fe5b600660009054906101000a900460ff166003811115610d0a57fe5b1415610d3d577f8bcab97621bffacd0e2294a6d955606c17f720e3b8174ba5c60e95c83cd5e38360405160405180910390a15b565b6000806003811115610d4d57fe5b600660009054906101000a900460ff166003811115610d6857fe5b14610d7257600080fd5b6000809054906101000a900473ffffffffffffffffffffffffffffffffffffffff1673ffffffffffffffffffffffffffffffffffffffff163373ffffffffffffffffffffffffffffffffffffffff1614610dcb57600080fd5b600460008154809291906001019190505550600454600160008573ffffffffffffffffffffffffffffffffffffffff1673ffffffffffffffffffffffffffffffffffffffff1681526020019081526020016000206000018190555085600160008573ffffffffffffffffffffffffffffffffffffffff1673ffffffffffffffffffffffffffffffffffffffff1681526020019081526020016000206001019080519060200190610e7c929190611435565b5084600160008573ffffffffffffffffffffffffffffffffffffffff1673ffffffffffffffffffffffffffffffffffffffff1681526020019081526020016000206002018190555083600160008573ffffffffffffffffffffffffffffffffffffffff1673ffffffffffffffffffffffffffffffffffffffff1681526020019081526020016000206003019080519060200190610f1a929190611435565b5060018060008573ffffffffffffffffffffffffffffffffffffffff1673ffffffffffffffffffffffffffffffffffffffff16815260200190815260200160002060040160006101000a81548160ff02191690831515021790555081600160008573ffffffffffffffffffffffffffffffffffffffff1673ffffffffffffffffffffffffffffffffffffffff16815260200190815260200160002060040160016101000a81548173ffffffffffffffffffffffffffffffffffffffff021916908373ffffffffffffffffffffffffffffffffffffffff160217905550600260008373ffffffffffffffffffffffffffffffffffffffff1673ffffffffffffffffffffffffffffffffffffffff168152602001908152602001600020600401600160008573ffffffffffffffffffffffffffffffffffffffff1673ffffffffffffffffffffffffffffffffffffffff1681526020019081526020016000209080600181540180825580915050906001820390600052602060002090600502016000909192909190915060008201548160000155600182018160010190805460018160011615610100020316600290046110d39291906114b5565b5060028201548160020155600382018160030190805460018160011615610100020316600290046111059291906114b5565b506004820160009054906101000a900460ff168160040160006101000a81548160ff0219169083151502179055506004820160019054906101000a900473ffffffffffffffffffffffffffffffffffffffff168160040160016101000a81548173ffffffffffffffffffffffffffffffffffffffff021916908373ffffffffffffffffffffffffffffffffffffffff160217905550505050505050505050565b60008060008060018060038111156111b957fe5b600660009054906101000a900460ff1660038111156111d457fe5b146111de57600080fd5b600160003373ffffffffffffffffffffffffffffffffffffffff1673ffffffffffffffffffffffffffffffffffffffff1681526020019081526020016000206000015460405160200180828152602001915050604051602081830303815290604052805190602001209450600160003373ffffffffffffffffffffffffffffffffffffffff1673ffffffffffffffffffffffffffffffffffffffff1681526020019081526020016000206002015460405160200180828152602001915050604051602081830303815290604052805190602001209350600160003373ffffffffffffffffffffffffffffffffffffffff1673ffffffffffffffffffffffffffffffffffffffff16815260200190815260200160002060010160405160200180828054600181600116156101000203166002900480156113545780601f10611332576101008083540402835291820191611354565b820191906000526020600020905b815481529060010190602001808311611340575b5050915050604051602081830303815290604052805190602001209250600160003373ffffffffffffffffffffffffffffffffffffffff1673ffffffffffffffffffffffffffffffffffffffff16815260200190815260200160002060030160405160200180828054600181600116156101000203166002900480156114115780601f106113ef576101008083540402835291820191611411565b820191906000526020600020905b8154815290600101906020018083116113fd575b50509150506040516020818303038152906040528051906020012091505090919293565b828054600181600116156101000203166002900490600052602060002090601f016020900481019282601f1061147657805160ff19168380011785556114a4565b828001600101855582156114a4579182015b828111156114a3578251825591602001919060010190611488565b5b5090506114b1919061153c565b5090565b828054600181600116156101000203166002900490600052602060002090601f016020900481019282601f106114ee578054855561152b565b8280016001018555821561152b57600052602060002091601f016020900482015b8281111561152a57825482559160010191906001019061150f565b5b509050611538919061153c565b5090565b61155e91905b8082111561155a576000816000905550600101611542565b5090565b9056fea265627a7a72315820447bc5395fdc60692d304ac210fbb3be05d82c6c537eecc6478aafb8b203130e64736f6c63430005100032",
  "source": "pragma solidity >=0.4.22 <0.7.0;\r\n\r\n//HospitalRecord Smart contract where you can store information of patients and make transactions\r\n\r\ncontract HospitalRecord {\r\n\r\n    address public hospital;\r\n\r\n    struct Patient {\r\n        uint Identification ;\r\n        string Name;\r\n        uint Age;\r\n        string problem;\r\n        bool Reg;\r\n        address Doctor;\r\n    }\r\n\r\n    struct Doctor {\r\n        uint Identification ;\r\n        string Name;\r\n        uint Age;\r\n        bool Reg;\r\n        Patient[] patients;\r\n    }\r\n\r\n    // There are four phases where you can change your transactions\r\n\r\n    enum Phase {Registration, View, Update , Pay}\r\n\r\n    mapping(address => Patient) patients;\r\n    mapping(address => Doctor) doctors;\r\n     Patient[] pat_record;\r\n     uint patient_identification;\r\n     uint doctor_identification;\r\n\r\n    //default phase is Registration phase where you register your details\r\n\r\n    Phase public currentPhase = Phase.Registration;\r\n\r\n    //events\r\n\r\n    event RegistrationStarted();\r\n    event ViewDetails();\r\n    event UpdatingAge();\r\n    event PayAmount();\r\n\r\n    constructor () public payable {\r\n        hospital = msg.sender;\r\n    }\r\n\r\n    //modifiers\r\n\r\n    modifier validPhase(Phase reqPhase) {\r\n        require(currentPhase == reqPhase);\r\n        _;\r\n    }\r\n\r\n    modifier onlyPatient{\r\n        require(patients[msg.sender].Reg, \"You aren't Registered yet!\");\r\n        _;\r\n    }\r\n\r\n    modifier onlyDoctor{\r\n        require(doctors[msg.sender].Reg, \"You aren't Registered yet!\");\r\n        _;\r\n    }\r\n\r\n    modifier onlyHospital{\r\n        require(msg.sender == hospital);\r\n        _;\r\n    }\r\n\r\n    // Advance Phase\r\n\r\n    function advancePhase() public onlyHospital {\r\n        if (currentPhase == Phase.Pay) {\r\n            currentPhase = Phase.Registration;\r\n        }\r\n        else {\r\n            uint nextPhase = uint(currentPhase) + 1;\r\n            currentPhase = Phase(nextPhase);\r\n        }\r\n\r\n\r\n        if (currentPhase == Phase.Registration) emit RegistrationStarted();\r\n        if (currentPhase == Phase.View) emit ViewDetails();\r\n        if (currentPhase == Phase.Update) emit UpdatingAge();\r\n        if (currentPhase == Phase.Pay) emit PayAmount();\r\n    }\r\n\r\n\r\n     // @dev It will create a Patient Register History\r\n     // @param name, age and problem are given by the patients and address P & D to store the address\r\n\r\n\r\n    function patientRegister(string memory name, uint age, string memory problem, address P, address D) public validPhase (Phase.Registration) onlyHospital {\r\n\r\n        patient_identification++;\r\n       patients[P].Identification = patient_identification;\r\n       patients[P].Name = name;\r\n       patients[P].Age = age;\r\n       patients[P].problem = problem;\r\n       patients[P].Reg = true;\r\n       patients[P].Doctor = D;\r\n       doctors[D].patients.push(patients[P]);\r\n    }\r\n\r\n\r\n     // @dev It will create a Doctor Register History\r\n     // @param name and age are given by the doctors and address D to store the address\r\n\r\n\r\n    function DoctorRegister(string memory name, uint age, address D) public validPhase (Phase.Registration) onlyHospital {\r\n\r\n\r\n       doctor_identification++;\r\n       doctors[D].Identification = doctor_identification;\r\n       doctors[D].Name = name;\r\n       doctors[D].Age = age;\r\n       }\r\n\r\n\r\n     // @dev It will unregister a Patient from the Record\r\n     // @param address P1 to store the address\r\n\r\n\r\n    function unregisterPatient (address payable P1) onlyHospital public {\r\n\r\n        if(hospital!=msg.sender){\r\n            revert();\r\n        }\r\n        patients[P1].Reg = false;\r\n\r\n    }\r\n\r\n    // @dev It will update the Patient's age details\r\n    // @param age to store the new age\r\n\r\n    function updateAge(address A, uint age) public validPhase (Phase.Update) onlyHospital {\r\n\r\n        patients[A].Age = age;\r\n        pat_record[patients[A].Identification - 1].Age = age;\r\n    }\r\n\r\n    //@dev You can view the Patient Register History\r\n    // keccak256 function will hash the Patients details and will display it in bytes32 value\r\n\r\n    function viewRecord() public view validPhase (Phase.View)  returns(bytes32 Id,bytes32 Age,bytes32  Name,bytes32 problem){\r\n\r\n         Id = keccak256(abi.encodePacked(patients[msg.sender].Identification));\r\n         Age = keccak256(abi.encodePacked(patients[msg.sender].Age));\r\n         Name = keccak256(abi.encodePacked(patients[msg.sender].Name));\r\n         problem = keccak256(abi.encodePacked(patients[msg.sender].problem));\r\n\r\n    }\r\n\r\n    // @dev To pay the bill from the Patient to Doctor and hospital\r\n    // @param address toDoctor and toHospital for the amount\r\n\r\n     function payBill(address payable toHospital, address payable toDoctor) validPhase (Phase.Pay) onlyPatient payable public {\r\n         uint amount = msg.value;\r\n         toHospital.transfer(amount / 2);\r\n         toDoctor.transfer(amount / 2);\r\n    }\r\n\r\n}\r\n",
  "sourcePath": "C:/Users/mohit/Desktop/Sem - 7/426/MedX - Dapp/MedX - Dapp/medx-contract/contracts/medX.sol",
  "compiler": {
    "name": "solc",
    "version": "0.5.16+commit.9c3226ce.Emscripten.clang"
  },
  "schemaVersion": "3.2.5",
  "updatedAt": "2020-11-26T04:26:49.897Z",
  "networkType": "ethereum",
  "devdoc": {
    "methods": {}
  },
  "userdoc": {
    "methods": {}
  }
}